{
  "address": "0xF488E8645AF56E12093e97612d8a4Db7a6325198",
  "abi": [
    {
      "inputs": [
        {
          "internalType": "address payable",
          "name": "recipient",
          "type": "address"
        }
      ],
      "name": "transferEth",
      "outputs": [
        {
          "internalType": "bool",
          "name": "success",
          "type": "bool"
        }
      ],
      "stateMutability": "payable",
      "type": "function"
    },
    {
      "inputs": [
        {
          "internalType": "address",
          "name": "tokenAddress",
          "type": "address"
        },
        {
          "internalType": "address",
          "name": "recipient",
          "type": "address"
        },
        {
          "internalType": "uint256",
          "name": "amount",
          "type": "uint256"
        }
      ],
      "name": "transferToken",
      "outputs": [
        {
          "internalType": "bool",
          "name": "",
          "type": "bool"
        }
      ],
      "stateMutability": "nonpayable",
      "type": "function"
    }
  ],
  "transactionHash": "0x5bedc0a886e932208e835e74cacfd078a0336f5961dd85f02d0838910ac0b91b",
  "args": [],
  "numDeployments": 1,
  "solcInputHash": "efb22d657c483f1944f2427b261562cd",
  "bytecode": "0x608060405234801561001057600080fd5b5060016000556105c0806100256000396000f3fe6080604052600436106100295760003560e01c806330df47af1461002e578063f5537ede14610055575b600080fd5b61004161003c366004610497565b610075565b604051901515815260200160405180910390f35b34801561006157600080fd5b506100416100703660046104b4565b610129565b600061007f61015c565b6040516001600160a01b038316903490600081818185875af1925050503d80600081146100c8576040519150601f19603f3d011682016040523d82523d6000602084013e6100cd565b606091505b5050809150508061011a5760405162461bcd60e51b815260206004820152601260248201527108cc2d2d8cac840e8de40e6cadcc840cae8d60731b60448201526064015b60405180910390fd5b6101246001600055565b919050565b600061013361015c565b6101486001600160a01b0385163385856101b5565b5060016101556001600055565b9392505050565b6002600054036101ae5760405162461bcd60e51b815260206004820152601f60248201527f5265656e7472616e637947756172643a207265656e7472616e742063616c6c006044820152606401610111565b6002600055565b604080516001600160a01b0385811660248301528416604482015260648082018490528251808303909101815260849091019091526020810180516001600160e01b03166323b872dd60e01b17905261020f908590610215565b50505050565b600061026a826040518060400160405280602081526020017f5361666545524332303a206c6f772d6c6576656c2063616c6c206661696c6564815250856001600160a01b03166102ef9092919063ffffffff16565b905080516000148061028b57508080602001905181019061028b91906104f5565b6102ea5760405162461bcd60e51b815260206004820152602a60248201527f5361666545524332303a204552433230206f7065726174696f6e20646964206e6044820152691bdd081cdd58d8d9595960b21b6064820152608401610111565b505050565b60606102fe8484600085610306565b949350505050565b6060824710156103675760405162461bcd60e51b815260206004820152602660248201527f416464726573733a20696e73756666696369656e742062616c616e636520666f6044820152651c8818d85b1b60d21b6064820152608401610111565b600080866001600160a01b03168587604051610383919061053b565b60006040518083038185875af1925050503d80600081146103c0576040519150601f19603f3d011682016040523d82523d6000602084013e6103c5565b606091505b50915091506103d6878383876103e1565b979650505050505050565b60608315610450578251600003610449576001600160a01b0385163b6104495760405162461bcd60e51b815260206004820152601d60248201527f416464726573733a2063616c6c20746f206e6f6e2d636f6e74726163740000006044820152606401610111565b50816102fe565b6102fe83838151156104655781518083602001fd5b8060405162461bcd60e51b81526004016101119190610557565b6001600160a01b038116811461049457600080fd5b50565b6000602082840312156104a957600080fd5b81356101558161047f565b6000806000606084860312156104c957600080fd5b83356104d48161047f565b925060208401356104e48161047f565b929592945050506040919091013590565b60006020828403121561050757600080fd5b8151801515811461015557600080fd5b60005b8381101561053257818101518382015260200161051a565b50506000910152565b6000825161054d818460208701610517565b9190910192915050565b6020815260008251806020840152610576816040850160208701610517565b601f01601f1916919091016040019291505056fea26469706673582212202404a73f2110709614094d528783bb24e236c9fef8b03d9513575a15dd451f3564736f6c63430008120033",
  "devdoc": {
    "kind": "dev",
    "methods": {
      "transferEth(address)": {
        "details": "msg.sender needs to send ETH in msg.value",
        "params": {
          "recipient": "address receiving the ETH."
        }
      },
      "transferToken(address,address,uint256)": {
        "details": "sender needs to approve tokens to this contract before calling this function.",
        "params": {
          "amount": "number of ERC20 tokens to transfer.",
          "recipient": "address receiving the ERC20 tokens.",
          "tokenAddress": "address of the ERC20 contract."
        }
      }
    },
    "version": 1
  },
  "userdoc": {
    "kind": "user",
    "methods": {
      "transferEth(address)": {
        "notice": "transfers ETH from msg.sender to recipient."
      },
      "transferToken(address,address,uint256)": {
        "notice": "transfers ERC20 from msg.sender to recipient."
      }
    },
    "version": 1
  },
  "storageLayout": {
    "storage": [
      {
        "astId": 10,
        "contract": "contracts/SimpleTransfer.sol:SimpleTransfer",
        "label": "_status",
        "offset": 0,
        "slot": "0",
        "type": "t_uint256"
      }
    ],
    "types": {
      "t_uint256": {
        "encoding": "inplace",
        "label": "uint256",
        "numberOfBytes": "32"
      }
    }
  }
}